:1000000012C048C020C01FC01EC01DC01CC01BC0E5
:100010001AC01AC018C017C016C015C014C013C02B
:1000200012C011C010C011241FBECFE5D4E0DEBF46
:10003000CDBF20E0A0E6B0E001C01D92A736B20718
:10004000E1F720D143C1DCCF1F920F920FB60F9280
:1000500011248F939F9386E082BF80916200873244
:1000600028F4809162008F5F80936200809161002C
:10007000882349F09091620080916100981303C039
:1000800085B38F7C85BB9F918F910F900FBE0F9092
:100090001F9018951F920F920FB60F9211248F93F5
:1000A00086E082BF1092620080916100882321F077
:1000B00085B3806385BB03C085B38F7C85BB80918E
:1000C0006300833030F4809163008F5F809363001E
:1000D00022C081E08093630080916000813061F4F0
:1000E0008091610081508093610080916100811155
:1000F00012C0109260000FC080916000823059F4ED
:10010000809161008F5F80936100809161008732F0
:1001100011F41092600080916400823328F4809181
:1001200064008F5F809364008F910F900FBE0F90DB
:100130001F9018959091650080916600981709F4BA
:1001400055C08130D1F4923051F480916100882300
:1001500089F0809161008150809361000BC09330E1
:1001600049F480916100873228F4809161008F5FAB
:10017000809361001092650008958230D1F493302D
:1001800051F480916100882389F080916100815051
:10019000809361000BC0913049F4809161008732F7
:1001A00028F4809161008F5F809361001092650058
:1001B00008958330D9F480916500813051F48091A5
:1001C0006100882389F080916100815080936100F3
:1001D0000BC0823049F480916100873228F480910D
:1001E00061008F5F80936100109265000895109206
:1001F000650010926600989904C0999902C09A9B74
:1002000005C01092640081E080936300089580919E
:100210006300823081F08330D1F0813019F5989BF2
:1002200021C0809166008093650081E08093660024
:100230001092640017C0999B15C08091660080934E
:10024000650082E080936600109264000BC09A9B68
:1002500009C0809166008093650083E0809366000A
:100260001092640067DF08959B9B0BC08091610032
:10027000882321F081E080936000089582E08093DC
:100280006000089584B3807F84BB84B3806384BBA3
:1002900081B38A7F81BB85B7826085BF8BB780645D
:1002A0008BBF83B7826083BF89B7816089BF789431
:1002B00086E082BF80916400823309F498DF8091E8
:1002C0006400823308F4A3DFCFDFF4CFF894FFCFCC
:00000001FF
